{
  "_format": "hh-sol-artifact-1",
  "contractName": "AccountManager",
  "sourceName": "contracts/AccountManager.sol",
  "abi": [
    {
      "anonymous": false,
      "inputs": [
        {
          "indexed": true,
          "internalType": "address",
          "name": "userAddress",
          "type": "address"
        }
      ],
      "name": "AccountCreated",
      "type": "event"
    },
    {
      "anonymous": false,
      "inputs": [
        {
          "indexed": true,
          "internalType": "address",
          "name": "userAddress",
          "type": "address"
        }
      ],
      "name": "AccountUpdated",
      "type": "event"
    },
    {
      "anonymous": false,
      "inputs": [
        {
          "indexed": true,
          "internalType": "address",
          "name": "userAddress",
          "type": "address"
        }
      ],
      "name": "BackupUpdated",
      "type": "event"
    },
    {
      "anonymous": false,
      "inputs": [
        {
          "indexed": true,
          "internalType": "address",
          "name": "userAddress",
          "type": "address"
        }
      ],
      "name": "PinUpdated",
      "type": "event"
    },
    {
      "anonymous": false,
      "inputs": [
        {
          "indexed": true,
          "internalType": "address",
          "name": "userAddress",
          "type": "address"
        }
      ],
      "name": "RecoveryPhraseUpdated",
      "type": "event"
    },
    {
      "inputs": [
        {
          "internalType": "address",
          "name": "_userAddress",
          "type": "address"
        }
      ],
      "name": "accountExists",
      "outputs": [
        {
          "internalType": "bool",
          "name": "",
          "type": "bool"
        }
      ],
      "stateMutability": "view",
      "type": "function"
    },
    {
      "inputs": [
        {
          "internalType": "bytes32",
          "name": "_pinHash",
          "type": "bytes32"
        },
        {
          "internalType": "string",
          "name": "_recoveryPhrase",
          "type": "string"
        }
      ],
      "name": "createAccount",
      "outputs": [],
      "stateMutability": "nonpayable",
      "type": "function"
    },
    {
      "inputs": [],
      "name": "getAccountCreationTime",
      "outputs": [
        {
          "internalType": "uint256",
          "name": "",
          "type": "uint256"
        }
      ],
      "stateMutability": "view",
      "type": "function"
    },
    {
      "inputs": [],
      "name": "getAccountLastUpdateTime",
      "outputs": [
        {
          "internalType": "uint256",
          "name": "",
          "type": "uint256"
        }
      ],
      "stateMutability": "view",
      "type": "function"
    },
    {
      "inputs": [
        {
          "internalType": "bytes32",
          "name": "_pinHash",
          "type": "bytes32"
        }
      ],
      "name": "getBackupData",
      "outputs": [
        {
          "internalType": "string",
          "name": "",
          "type": "string"
        }
      ],
      "stateMutability": "view",
      "type": "function"
    },
    {
      "inputs": [
        {
          "internalType": "string",
          "name": "_recoveryPhrase",
          "type": "string"
        }
      ],
      "name": "recoverAccountAddress",
      "outputs": [
        {
          "internalType": "address",
          "name": "",
          "type": "address"
        }
      ],
      "stateMutability": "view",
      "type": "function"
    },
    {
      "inputs": [
        {
          "internalType": "string",
          "name": "_recoveryPhrase",
          "type": "string"
        },
        {
          "internalType": "bytes32",
          "name": "_newPinHash",
          "type": "bytes32"
        }
      ],
      "name": "resetPin",
      "outputs": [],
      "stateMutability": "nonpayable",
      "type": "function"
    },
    {
      "inputs": [
        {
          "internalType": "bytes32",
          "name": "_pinHash",
          "type": "bytes32"
        },
        {
          "internalType": "string",
          "name": "_encryptedBackupData",
          "type": "string"
        }
      ],
      "name": "updateBackup",
      "outputs": [],
      "stateMutability": "nonpayable",
      "type": "function"
    },
    {
      "inputs": [
        {
          "internalType": "bytes32",
          "name": "_currentPinHash",
          "type": "bytes32"
        },
        {
          "internalType": "bytes32",
          "name": "_newPinHash",
          "type": "bytes32"
        }
      ],
      "name": "updatePin",
      "outputs": [],
      "stateMutability": "nonpayable",
      "type": "function"
    },
    {
      "inputs": [
        {
          "internalType": "bytes32",
          "name": "_pinHash",
          "type": "bytes32"
        },
        {
          "internalType": "string",
          "name": "_newRecoveryPhrase",
          "type": "string"
        }
      ],
      "name": "updateRecoveryPhrase",
      "outputs": [],
      "stateMutability": "nonpayable",
      "type": "function"
    },
    {
      "inputs": [
        {
          "internalType": "bytes32",
          "name": "_pinHash",
          "type": "bytes32"
        }
      ],
      "name": "verifyPin",
      "outputs": [
        {
          "internalType": "bool",
          "name": "",
          "type": "bool"
        }
      ],
      "stateMutability": "view",
      "type": "function"
    }
  ],
  "bytecode": "0x608060405234801561001057600080fd5b50610e33806100206000396000f3fe608060405234801561001057600080fd5b50600436106100a95760003560e01c806375cd51ed1161007157806375cd51ed1461013457806384acf96d146101635780638be2a6721461018e578063b2ecb25c146101a1578063e6801906146101b4578063e95be02b146101bc57600080fd5b80631564be83146100ae5780632d70c462146100c957806359c7e177146100de57806362d8dfc9146100fe5780636971f47914610121575b600080fd5b6100b66101cf565b6040519081526020015b60405180910390f35b6100dc6100d7366004610a49565b610221565b005b6100f16100ec366004610a90565b61039b565b6040516100c09190610acd565b61011161010c366004610a90565b6104a0565b60405190151581526020016100c0565b6100dc61012f366004610b00565b6104e7565b610111610142366004610b22565b6001600160a01b031660009081526020819052604090206005015460ff1690565b610176610171366004610b4b565b6105b0565b6040516001600160a01b0390911681526020016100c0565b6100dc61019c366004610a49565b61065b565b6100dc6101af366004610a49565b610718565b6100b6610871565b6100dc6101ca366004610b88565b6108ba565b3360009081526020819052604081206005015460ff1661020a5760405162461bcd60e51b815260040161020190610bcd565b60405180910390fd5b503360009081526020819052604090206004015490565b3360009081526020819052604090206005015460ff161561027d5760405162461bcd60e51b81526020600482015260166024820152754163636f756e7420616c72656164792065786973747360501b6044820152606401610201565b6040805160c081018252838152815160208181018452600080835281840192835283850186905242606085018190526080850152600160a08501819052338252918190529390932082518155905191929091908201906102dd9082610c86565b50604082015160028201906102f29082610c86565b50606082015160038201556080820151600482015560a0909101516005909101805460ff1916911515919091179055604051600090610335908390602001610d46565b60408051601f1981840301815282825280516020918201206000818152600190925291812080546001600160a01b0319163390811790915591935090917f805996f252884581e2f74cf3d2b03564d5ec26ccc90850ae12653dc1b72d1fa29190a2505050565b3360009081526020819052604090206005015460609060ff166103d05760405162461bcd60e51b815260040161020190610bcd565b3360009081526020819052604090205482146103fe5760405162461bcd60e51b815260040161020190610d62565b336000908152602081905260409020600101805461041b90610bfd565b80601f016020809104026020016040519081016040528092919081815260200182805461044790610bfd565b80156104945780601f1061046957610100808354040283529160200191610494565b820191906000526020600020905b81548152906001019060200180831161047757829003601f168201915b50505050509050919050565b3360009081526020819052604081206005015460ff166104d25760405162461bcd60e51b815260040161020190610bcd565b50336000908152602081905260409020541490565b3360009081526020819052604090206005015460ff166105195760405162461bcd60e51b815260040161020190610bcd565b33600090815260208190526040902054821461056d5760405162461bcd60e51b815260206004820152601360248201527224b73b30b634b21031bab93932b73a102824a760691b6044820152606401610201565b3360008181526020819052604080822084815542600490910155517f1423a76cc1171a59c223680d7e2ec9f59adadc0fd87972a1798eeda417428b959190a25050565b600080826040516020016105c49190610d46565b60408051601f198184030181529181528151602092830120600081815260019093529120549091506001600160a01b0316806106545760405162461bcd60e51b815260206004820152602960248201527f4e6f206163636f756e7420666f756e6420666f722074686973207265636f766560448201526872792070687261736560b81b6064820152608401610201565b9392505050565b3360009081526020819052604090206005015460ff1661068d5760405162461bcd60e51b815260040161020190610bcd565b3360009081526020819052604090205482146106bb5760405162461bcd60e51b815260040161020190610d62565b3360009081526020819052604090206001016106d78282610c86565b503360008181526020819052604080822042600490910155517f60d6968272b66c91423d77488ce96efd5a0e22d66aea10481b9a182c1f4312359190a25050565b3360009081526020819052604090206005015460ff1661074a5760405162461bcd60e51b815260040161020190610bcd565b3360009081526020819052604090205482146107785760405162461bcd60e51b815260040161020190610d62565b33600090815260208181526040808320905161079a9260029092019101610d87565b60408051601f19818403018152918152815160209283012060008181526001845282812080546001600160a01b03191690553381529283905291209091506002016107e58382610c86565b5033600090815260208181526040808320426004909101555161080a91859101610d46565b60408051601f1981840301815282825280516020918201206000818152600190925291812080546001600160a01b0319163390811790915591935090917f877924e214fbb0133288b8a2f08ea64d278e4368525283a698c1614632e7b7339190a250505050565b3360009081526020819052604081206005015460ff166108a35760405162461bcd60e51b815260040161020190610bcd565b503360009081526020819052604090206003015490565b6000826040516020016108cd9190610d46565b60408051601f198184030181529181528151602092830120600081815260019093529120549091506001600160a01b03163381146109615760405162461bcd60e51b815260206004820152602b60248201527f496e76616c6964207265636f7665727920706872617365206f72206e6f74207960448201526a1bdd5c881858d8dbdd5b9d60aa1b6064820152608401610201565b3360008181526020819052604080822086815542600490910155517f1423a76cc1171a59c223680d7e2ec9f59adadc0fd87972a1798eeda417428b959190a250505050565b634e487b7160e01b600052604160045260246000fd5b600082601f8301126109cd57600080fd5b813567ffffffffffffffff808211156109e8576109e86109a6565b604051601f8301601f19908116603f01168101908282118183101715610a1057610a106109a6565b81604052838152866020858801011115610a2957600080fd5b836020870160208301376000602085830101528094505050505092915050565b60008060408385031215610a5c57600080fd5b82359150602083013567ffffffffffffffff811115610a7a57600080fd5b610a86858286016109bc565b9150509250929050565b600060208284031215610aa257600080fd5b5035919050565b60005b83811015610ac4578181015183820152602001610aac565b50506000910152565b6020815260008251806020840152610aec816040850160208701610aa9565b601f01601f19169190910160400192915050565b60008060408385031215610b1357600080fd5b50508035926020909101359150565b600060208284031215610b3457600080fd5b81356001600160a01b038116811461065457600080fd5b600060208284031215610b5d57600080fd5b813567ffffffffffffffff811115610b7457600080fd5b610b80848285016109bc565b949350505050565b60008060408385031215610b9b57600080fd5b823567ffffffffffffffff811115610bb257600080fd5b610bbe858286016109bc565b95602094909401359450505050565b6020808252601690820152751058d8dbdd5b9d08191bd95cc81b9bdd08195e1a5cdd60521b604082015260600190565b600181811c90821680610c1157607f821691505b602082108103610c3157634e487b7160e01b600052602260045260246000fd5b50919050565b601f821115610c8157600081815260208120601f850160051c81016020861015610c5e5750805b601f850160051c820191505b81811015610c7d57828155600101610c6a565b5050505b505050565b815167ffffffffffffffff811115610ca057610ca06109a6565b610cb481610cae8454610bfd565b84610c37565b602080601f831160018114610ce95760008415610cd15750858301515b600019600386901b1c1916600185901b178555610c7d565b600085815260208120601f198616915b82811015610d1857888601518255948401946001909101908401610cf9565b5085821015610d365787850151600019600388901b60f8161c191681555b5050505050600190811b01905550565b60008251610d58818460208701610aa9565b9190910192915050565b6020808252600b908201526a24b73b30b634b2102824a760a91b604082015260600190565b6000808354610d9581610bfd565b60018281168015610dad5760018114610dc257610df1565b60ff1984168752821515830287019450610df1565b8760005260208060002060005b85811015610de85781548a820152908401908201610dcf565b50505082870194505b5092969550505050505056fea26469706673582212201704058785aac1029c862393377aba89e9514250861c4cf6e93a8e23a3b5d96464736f6c63430008130033",
  "linkReferences": {},
  "deployedLinkReferences": {}
}