{
  "_format": "hh-sol-artifact-1",
  "contractName": "MessageManager",
  "sourceName": "contracts/MessageManager.sol",
  "abi": [
    {
      "inputs": [
        {
          "internalType": "address",
          "name": "_userAccountAddress",
          "type": "address"
        }
      ],
      "stateMutability": "nonpayable",
      "type": "constructor"
    },
    {
      "anonymous": false,
      "inputs": [
        {
          "indexed": true,
          "internalType": "bytes32",
          "name": "messageId",
          "type": "bytes32"
        },
        {
          "indexed": true,
          "internalType": "address",
          "name": "sender",
          "type": "address"
        },
        {
          "indexed": true,
          "internalType": "bytes32",
          "name": "groupId",
          "type": "bytes32"
        },
        {
          "indexed": false,
          "internalType": "enum MessageManager.MessageType",
          "name": "messageType",
          "type": "uint8"
        }
      ],
      "name": "GroupMessageSent",
      "type": "event"
    },
    {
      "anonymous": false,
      "inputs": [
        {
          "indexed": true,
          "internalType": "bytes32",
          "name": "messageId",
          "type": "bytes32"
        },
        {
          "indexed": true,
          "internalType": "address",
          "name": "sender",
          "type": "address"
        },
        {
          "indexed": true,
          "internalType": "address",
          "name": "receiver",
          "type": "address"
        },
        {
          "indexed": false,
          "internalType": "enum MessageManager.MessageType",
          "name": "messageType",
          "type": "uint8"
        }
      ],
      "name": "MessageSent",
      "type": "event"
    },
    {
      "inputs": [
        {
          "internalType": "bytes32",
          "name": "_groupId",
          "type": "bytes32"
        }
      ],
      "name": "getGroupMessages",
      "outputs": [
        {
          "internalType": "bytes32[]",
          "name": "",
          "type": "bytes32[]"
        }
      ],
      "stateMutability": "view",
      "type": "function"
    },
    {
      "inputs": [
        {
          "internalType": "bytes32",
          "name": "_messageId",
          "type": "bytes32"
        }
      ],
      "name": "getMessage",
      "outputs": [
        {
          "internalType": "address",
          "name": "sender",
          "type": "address"
        },
        {
          "internalType": "address",
          "name": "receiver",
          "type": "address"
        },
        {
          "internalType": "bytes32",
          "name": "groupId",
          "type": "bytes32"
        },
        {
          "internalType": "enum MessageManager.MessageType",
          "name": "messageType",
          "type": "uint8"
        },
        {
          "internalType": "string",
          "name": "contentHash",
          "type": "string"
        },
        {
          "internalType": "uint256",
          "name": "timestamp",
          "type": "uint256"
        },
        {
          "internalType": "bool",
          "name": "isEncrypted",
          "type": "bool"
        }
      ],
      "stateMutability": "view",
      "type": "function"
    },
    {
      "inputs": [
        {
          "internalType": "address",
          "name": "_userAddress",
          "type": "address"
        }
      ],
      "name": "getReceivedMessages",
      "outputs": [
        {
          "internalType": "bytes32[]",
          "name": "",
          "type": "bytes32[]"
        }
      ],
      "stateMutability": "view",
      "type": "function"
    },
    {
      "inputs": [
        {
          "internalType": "address",
          "name": "_userAddress",
          "type": "address"
        }
      ],
      "name": "getSentMessages",
      "outputs": [
        {
          "internalType": "bytes32[]",
          "name": "",
          "type": "bytes32[]"
        }
      ],
      "stateMutability": "view",
      "type": "function"
    },
    {
      "inputs": [
        {
          "internalType": "bytes32",
          "name": "",
          "type": "bytes32"
        },
        {
          "internalType": "uint256",
          "name": "",
          "type": "uint256"
        }
      ],
      "name": "groupMessages",
      "outputs": [
        {
          "internalType": "bytes32",
          "name": "",
          "type": "bytes32"
        }
      ],
      "stateMutability": "view",
      "type": "function"
    },
    {
      "inputs": [
        {
          "internalType": "bytes32",
          "name": "",
          "type": "bytes32"
        }
      ],
      "name": "messages",
      "outputs": [
        {
          "internalType": "address",
          "name": "sender",
          "type": "address"
        },
        {
          "internalType": "address",
          "name": "receiver",
          "type": "address"
        },
        {
          "internalType": "bytes32",
          "name": "groupId",
          "type": "bytes32"
        },
        {
          "internalType": "enum MessageManager.MessageType",
          "name": "messageType",
          "type": "uint8"
        },
        {
          "internalType": "string",
          "name": "contentHash",
          "type": "string"
        },
        {
          "internalType": "uint256",
          "name": "timestamp",
          "type": "uint256"
        },
        {
          "internalType": "bool",
          "name": "isEncrypted",
          "type": "bool"
        }
      ],
      "stateMutability": "view",
      "type": "function"
    },
    {
      "inputs": [
        {
          "internalType": "address",
          "name": "",
          "type": "address"
        },
        {
          "internalType": "uint256",
          "name": "",
          "type": "uint256"
        }
      ],
      "name": "receivedMessages",
      "outputs": [
        {
          "internalType": "bytes32",
          "name": "",
          "type": "bytes32"
        }
      ],
      "stateMutability": "view",
      "type": "function"
    },
    {
      "inputs": [
        {
          "internalType": "bytes32",
          "name": "_groupId",
          "type": "bytes32"
        },
        {
          "internalType": "enum MessageManager.MessageType",
          "name": "_messageType",
          "type": "uint8"
        },
        {
          "internalType": "string",
          "name": "_contentHash",
          "type": "string"
        },
        {
          "internalType": "bool",
          "name": "_isEncrypted",
          "type": "bool"
        }
      ],
      "name": "sendGroupMessage",
      "outputs": [
        {
          "internalType": "bytes32",
          "name": "",
          "type": "bytes32"
        }
      ],
      "stateMutability": "nonpayable",
      "type": "function"
    },
    {
      "inputs": [
        {
          "internalType": "address",
          "name": "_receiver",
          "type": "address"
        },
        {
          "internalType": "enum MessageManager.MessageType",
          "name": "_messageType",
          "type": "uint8"
        },
        {
          "internalType": "string",
          "name": "_contentHash",
          "type": "string"
        },
        {
          "internalType": "bool",
          "name": "_isEncrypted",
          "type": "bool"
        }
      ],
      "name": "sendMessage",
      "outputs": [
        {
          "internalType": "bytes32",
          "name": "",
          "type": "bytes32"
        }
      ],
      "stateMutability": "nonpayable",
      "type": "function"
    },
    {
      "inputs": [
        {
          "internalType": "address",
          "name": "",
          "type": "address"
        },
        {
          "internalType": "uint256",
          "name": "",
          "type": "uint256"
        }
      ],
      "name": "sentMessages",
      "outputs": [
        {
          "internalType": "bytes32",
          "name": "",
          "type": "bytes32"
        }
      ],
      "stateMutability": "view",
      "type": "function"
    },
    {
      "inputs": [],
      "name": "userAccountContract",
      "outputs": [
        {
          "internalType": "contract UserAccount",
          "name": "",
          "type": "address"
        }
      ],
      "stateMutability": "view",
      "type": "function"
    }
  ],
  "bytecode": "0x608060405234801561001057600080fd5b5060405161171e38038061171e83398101604081905261002f91610054565b600080546001600160a01b0319166001600160a01b0392909216919091179055610084565b60006020828403121561006657600080fd5b81516001600160a01b038116811461007d57600080fd5b9392505050565b61168b806100936000396000f3fe608060405234801561001057600080fd5b50600436106100a95760003560e01c806350b4d1fc1161007157806350b4d1fc14610137578063835f6619146101575780638602def614610182578063a98eebd814610195578063bf0f3ff8146101a8578063d93d3884146101bb57600080fd5b80630139a221146100ae5780631a35e5c0146100dd5780631c474ca1146100fe5780632bbd59ca146101115780632d63344914610124575b600080fd5b6100c16100bc366004610ecf565b6101ce565b6040516100d49796959493929190610f44565b60405180910390f35b6100f06100eb366004610fcd565b610338565b6040519081526020016100d4565b6100f061010c366004610ff9565b610369565b6100c161011f366004610ecf565b610385565b6100f0610132366004611102565b610461565b61014a61014536600461116c565b610964565b6040516100d49190611190565b60005461016a906001600160a01b031681565b6040516001600160a01b0390911681526020016100d4565b61014a61019036600461116c565b6109d0565b61014a6101a3366004610ecf565b610a3a565b6100f06101b63660046111d4565b610a9a565b6100f06101c9366004610fcd565b610eb3565b6000818152600160208181526040808420815160e08101835281546001600160a01b0390811682529482015490941692840192909252600282015490830152600380820154849384938493606093859384938493919290918388019160ff169081111561023d5761023d610ee8565b600381111561024e5761024e610ee8565b815260200160048201805461026290611203565b80601f016020809104026020016040519081016040528092919081815260200182805461028e90611203565b80156102db5780601f106102b0576101008083540402835291602001916102db565b820191906000526020600020905b8154815290600101906020018083116102be57829003601f168201915b5050509183525050600582015460208083019190915260069092015460ff161515604091820152825191830151908301516060840151608085015160a086015160c090960151949f939e50919c509a509850919650945092505050565b6002602052816000526040600020818154811061035457600080fd5b90600052602060002001600091509150505481565b6004602052816000526040600020818154811061035457600080fd5b6001602081905260009182526040909120805491810154600282015460038301546004840180546001600160a01b039687169690941694929360ff90921692916103ce90611203565b80601f01602080910402602001604051908101604052809291908181526020018280546103fa90611203565b80156104475780601f1061041c57610100808354040283529160200191610447565b820191906000526020600020905b81548152906001019060200180831161042a57829003601f168201915b50505050600583015460069093015491929160ff16905087565b6000805460405163543a185d60e11b815233600482015282916001600160a01b03169063a87430ba90602401600060405180830381865afa1580156104aa573d6000803e3d6000fd5b505050506040513d6000823e601f3d908101601f191682016040526104d2919081019061128a565b509350505050806105225760405162461bcd60e51b815260206004820152601560248201527414d95b99195c88191bd95cc81b9bdd08195e1a5cdd605a1b60448201526064015b60405180910390fd5b6000805460405163ef161bcb60e01b8152600481018990526001600160a01b039091169063ef161bcb90602401600060405180830381865afa15801561056c573d6000803e3d6000fd5b505050506040513d6000823e601f3d908101601f191682016040526105949190810190611331565b9350505050806105dd5760405162461bcd60e51b815260206004820152601460248201527311dc9bdd5c08191bd95cc81b9bdd08195e1a5cdd60621b6044820152606401610519565b60008054604051630d80a59b60e31b8152600481018a90526001600160a01b0390911690636c052cd890602401600060405180830381865afa158015610627573d6000803e3d6000fd5b505050506040513d6000823e601f3d908101601f1916820160405261064f9190810190611393565b90506000805b82518110156106ab57336001600160a01b031683828151811061067a5761067a611445565b60200260200101516001600160a01b03160361069957600191506106ab565b806106a38161145b565b915050610655565b50806106f95760405162461bcd60e51b815260206004820152601960248201527f4e6f742061206d656d626572206f66207468652067726f7570000000000000006044820152606401610519565b6000338a428a6040516020016107129493929190611482565b6040516020818303038152906040528051906020012090506040518060e00160405280336001600160a01b0316815260200160006001600160a01b031681526020018b81526020018a600381111561076c5761076c610ee8565b815260208082018b9052426040808401919091528a15156060938401526000858152600180845290829020855181546001600160a01b03199081166001600160a01b03928316178355948701518284018054909616911617909355908401516002830155918301516003808301805493949293909260ff199091169184908111156107f9576107f9610ee8565b0217905550608082015160048201906108129082611517565b5060a0820151600582015560c0909101516006909101805460ff1916911515919091179055336000908152600260209081526040808320805460018181018355918552838520018590558d845260048352908320805491820181558352908220018290555b835181101561091357336001600160a01b031684828151811061089c5761089c611445565b60200260200101516001600160a01b03161461090157600360008583815181106108c8576108c8611445565b6020908102919091018101516001600160a01b031682528181019290925260400160009081208054600181018255908252919020018290555b8061090b8161145b565b915050610877565b5089336001600160a01b0316827f36aa4835c95f6e4ffe59f1511bf0ff277fdabadf522394b61233f7bfb38783b08c60405161094f91906115d7565b60405180910390a49998505050505050505050565b6001600160a01b0381166000908152600360209081526040918290208054835181840281018401909452808452606093928301828280156109c457602002820191906000526020600020905b8154815260200190600101908083116109b0575b50505050509050919050565b6001600160a01b0381166000908152600260209081526040918290208054835181840281018401909452808452606093928301828280156109c457602002820191906000526020600020908154815260200190600101908083116109b05750505050509050919050565b6000818152600460209081526040918290208054835181840281018401909452808452606093928301828280156109c457602002820191906000526020600020908154815260200190600101908083116109b05750505050509050919050565b6000805460405163543a185d60e11b815233600482015282916001600160a01b03169063a87430ba90602401600060405180830381865afa158015610ae3573d6000803e3d6000fd5b505050506040513d6000823e601f3d908101601f19168201604052610b0b919081019061128a565b506000805460405163543a185d60e11b81526001600160a01b038d8116600483015293975091955091909116925063a87430ba9150602401600060405180830381865afa158015610b60573d6000803e3d6000fd5b505050506040513d6000823e601f3d908101601f19168201604052610b88919081019061128a565b50935050505081610bd35760405162461bcd60e51b815260206004820152601560248201527414d95b99195c88191bd95cc81b9bdd08195e1a5cdd605a1b6044820152606401610519565b80610c205760405162461bcd60e51b815260206004820152601760248201527f526563656976657220646f6573206e6f742065786973740000000000000000006044820152606401610519565b6000546040516316d2ea1760e11b81523360048201526001600160a01b03898116602483015290911690632da5d42e90604401602060405180830381865afa158015610c70573d6000803e3d6000fd5b505050506040513d601f19601f82011682018060405250810190610c9491906115eb565b610ce05760405162461bcd60e51b815260206004820152601960248201527f4e6f7420667269656e64732077697468207265636569766572000000000000006044820152606401610519565b600033884288604051602001610cf99493929190611608565b6040516020818303038152906040528051906020012090506040518060e00160405280336001600160a01b03168152602001896001600160a01b031681526020016000801b8152602001886003811115610d5557610d55610ee8565b81526020808201899052426040808401919091528815156060938401526000858152600180845290829020855181546001600160a01b03199081166001600160a01b03928316178355948701518284018054909616911617909355908401516002830155918301516003808301805493949293909260ff19909116918490811115610de257610de2610ee8565b021790555060808201516004820190610dfb9082611517565b5060a0820151600582015560c0909101516006909101805460ff1916911515919091179055336000818152600260209081526040808320805460018181018355918552838520018690556001600160a01b038d168085526003845282852080549283018155855292909320909201849055905190919083907f8a11c5fa28ff23398fb8881d69e23fa99e33e8b6cc1f08262f6d0ef845ce83d090610ea0908c906115d7565b60405180910390a4979650505050505050565b6003602052816000526040600020818154811061035457600080fd5b600060208284031215610ee157600080fd5b5035919050565b634e487b7160e01b600052602160045260246000fd5b60048110610f1c57634e487b7160e01b600052602160045260246000fd5b9052565b60005b83811015610f3b578181015183820152602001610f23565b50506000910152565b6001600160a01b03888116825287166020820152604081018690526000610f6e6060830187610efe565b60e0608083015284518060e0840152610100610f908282860160208a01610f20565b60a084019590955292151560c083015250601f909101601f1916010195945050505050565b6001600160a01b0381168114610fca57600080fd5b50565b60008060408385031215610fe057600080fd5b8235610feb81610fb5565b946020939093013593505050565b6000806040838503121561100c57600080fd5b50508035926020909101359150565b80356004811061102a57600080fd5b919050565b634e487b7160e01b600052604160045260246000fd5b604051601f8201601f1916810167ffffffffffffffff8111828210171561106e5761106e61102f565b604052919050565b600067ffffffffffffffff8211156110905761109061102f565b50601f01601f191660200190565b600082601f8301126110af57600080fd5b81356110c26110bd82611076565b611045565b8181528460208386010111156110d757600080fd5b816020850160208301376000918101602001919091529392505050565b8015158114610fca57600080fd5b6000806000806080858703121561111857600080fd5b843593506111286020860161101b565b9250604085013567ffffffffffffffff81111561114457600080fd5b6111508782880161109e565b9250506060850135611161816110f4565b939692955090935050565b60006020828403121561117e57600080fd5b813561118981610fb5565b9392505050565b6020808252825182820181905260009190848201906040850190845b818110156111c8578351835292840192918401916001016111ac565b50909695505050505050565b600080600080608085870312156111ea57600080fd5b84356111f581610fb5565b93506111286020860161101b565b600181811c9082168061121757607f821691505b60208210810361123757634e487b7160e01b600052602260045260246000fd5b50919050565b600082601f83011261124e57600080fd5b815161125c6110bd82611076565b81815284602083860101111561127157600080fd5b611282826020830160208701610f20565b949350505050565b600080600080600060a086880312156112a257600080fd5b855167ffffffffffffffff808211156112ba57600080fd5b6112c689838a0161123d565b965060208801519150808211156112dc57600080fd5b6112e889838a0161123d565b955060408801519150808211156112fe57600080fd5b5061130b8882890161123d565b935050606086015161131c816110f4565b80925050608086015190509295509295909350565b6000806000806080858703121561134757600080fd5b845167ffffffffffffffff81111561135e57600080fd5b61136a8782880161123d565b945050602085015161137b81610fb5565b604086015160608701519194509250611161816110f4565b600060208083850312156113a657600080fd5b825167ffffffffffffffff808211156113be57600080fd5b818501915085601f8301126113d257600080fd5b8151818111156113e4576113e461102f565b8060051b91506113f5848301611045565b818152918301840191848101908884111561140f57600080fd5b938501935b83851015611439578451925061142983610fb5565b8282529385019390850190611414565b98975050505050505050565b634e487b7160e01b600052603260045260246000fd5b60006001820161147b57634e487b7160e01b600052601160045260246000fd5b5060010190565b6bffffffffffffffffffffffff198560601b168152836014820152826034820152600082516114b8816054850160208701610f20565b9190910160540195945050505050565b601f82111561151257600081815260208120601f850160051c810160208610156114ef5750805b601f850160051c820191505b8181101561150e578281556001016114fb565b5050505b505050565b815167ffffffffffffffff8111156115315761153161102f565b6115458161153f8454611203565b846114c8565b602080601f83116001811461157a57600084156115625750858301515b600019600386901b1c1916600185901b17855561150e565b600085815260208120601f198616915b828110156115a95788860151825594840194600190910190840161158a565b50858210156115c75787850151600019600388901b60f8161c191681555b5050505050600190811b01905550565b602081016115e58284610efe565b92915050565b6000602082840312156115fd57600080fd5b8151611189816110f4565b60006bffffffffffffffffffffffff19808760601b168352808660601b166014840152508360288301528251611645816048850160208701610f20565b919091016048019594505050505056fea264697066735822122006793d16fd52416797182397ef5b3d6ee6cbb5a4e70f8059c456476af135fa4464736f6c63430008130033",
  "linkReferences": {},
  "deployedLinkReferences": {}
}