{
  "_format": "hh-sol-artifact-1",
  "contractName": "UserAccount",
  "sourceName": "contracts/UserAccount.sol",
  "abi": [
    {
      "anonymous": false,
      "inputs": [
        {
          "indexed": true,
          "internalType": "address",
          "name": "from",
          "type": "address"
        },
        {
          "indexed": true,
          "internalType": "address",
          "name": "to",
          "type": "address"
        },
        {
          "indexed": false,
          "internalType": "bytes32",
          "name": "requestId",
          "type": "bytes32"
        }
      ],
      "name": "FriendRequestAccepted",
      "type": "event"
    },
    {
      "anonymous": false,
      "inputs": [
        {
          "indexed": true,
          "internalType": "address",
          "name": "from",
          "type": "address"
        },
        {
          "indexed": true,
          "internalType": "address",
          "name": "to",
          "type": "address"
        },
        {
          "indexed": false,
          "internalType": "bytes32",
          "name": "requestId",
          "type": "bytes32"
        }
      ],
      "name": "FriendRequestRejected",
      "type": "event"
    },
    {
      "anonymous": false,
      "inputs": [
        {
          "indexed": true,
          "internalType": "address",
          "name": "from",
          "type": "address"
        },
        {
          "indexed": true,
          "internalType": "address",
          "name": "to",
          "type": "address"
        },
        {
          "indexed": false,
          "internalType": "bytes32",
          "name": "requestId",
          "type": "bytes32"
        }
      ],
      "name": "FriendRequestSent",
      "type": "event"
    },
    {
      "anonymous": false,
      "inputs": [
        {
          "indexed": true,
          "internalType": "bytes32",
          "name": "groupId",
          "type": "bytes32"
        },
        {
          "indexed": false,
          "internalType": "string",
          "name": "name",
          "type": "string"
        },
        {
          "indexed": true,
          "internalType": "address",
          "name": "owner",
          "type": "address"
        }
      ],
      "name": "GroupCreated",
      "type": "event"
    },
    {
      "anonymous": false,
      "inputs": [
        {
          "indexed": true,
          "internalType": "bytes32",
          "name": "groupId",
          "type": "bytes32"
        },
        {
          "indexed": true,
          "internalType": "address",
          "name": "userAddress",
          "type": "address"
        }
      ],
      "name": "UserAddedToGroup",
      "type": "event"
    },
    {
      "anonymous": false,
      "inputs": [
        {
          "indexed": true,
          "internalType": "address",
          "name": "userAddress",
          "type": "address"
        },
        {
          "indexed": false,
          "internalType": "string",
          "name": "username",
          "type": "string"
        }
      ],
      "name": "UserCreated",
      "type": "event"
    },
    {
      "anonymous": false,
      "inputs": [
        {
          "indexed": true,
          "internalType": "bytes32",
          "name": "groupId",
          "type": "bytes32"
        },
        {
          "indexed": true,
          "internalType": "address",
          "name": "userAddress",
          "type": "address"
        }
      ],
      "name": "UserRemovedFromGroup",
      "type": "event"
    },
    {
      "inputs": [
        {
          "internalType": "bytes32",
          "name": "_requestId",
          "type": "bytes32"
        }
      ],
      "name": "acceptFriendRequest",
      "outputs": [],
      "stateMutability": "nonpayable",
      "type": "function"
    },
    {
      "inputs": [
        {
          "internalType": "bytes32",
          "name": "_groupId",
          "type": "bytes32"
        },
        {
          "internalType": "address",
          "name": "_userAddress",
          "type": "address"
        }
      ],
      "name": "addUserToGroup",
      "outputs": [],
      "stateMutability": "nonpayable",
      "type": "function"
    },
    {
      "inputs": [
        {
          "internalType": "string",
          "name": "_name",
          "type": "string"
        }
      ],
      "name": "createGroup",
      "outputs": [
        {
          "internalType": "bytes32",
          "name": "",
          "type": "bytes32"
        }
      ],
      "stateMutability": "nonpayable",
      "type": "function"
    },
    {
      "inputs": [
        {
          "internalType": "string",
          "name": "_username",
          "type": "string"
        },
        {
          "internalType": "string",
          "name": "_publicKey",
          "type": "string"
        }
      ],
      "name": "createUser",
      "outputs": [],
      "stateMutability": "nonpayable",
      "type": "function"
    },
    {
      "inputs": [
        {
          "internalType": "bytes32",
          "name": "",
          "type": "bytes32"
        }
      ],
      "name": "friendRequests",
      "outputs": [
        {
          "internalType": "address",
          "name": "from",
          "type": "address"
        },
        {
          "internalType": "address",
          "name": "to",
          "type": "address"
        },
        {
          "internalType": "enum UserAccount.FriendRequestStatus",
          "name": "status",
          "type": "uint8"
        },
        {
          "internalType": "uint256",
          "name": "createdAt",
          "type": "uint256"
        }
      ],
      "stateMutability": "view",
      "type": "function"
    },
    {
      "inputs": [
        {
          "internalType": "address",
          "name": "",
          "type": "address"
        },
        {
          "internalType": "uint256",
          "name": "",
          "type": "uint256"
        }
      ],
      "name": "friends",
      "outputs": [
        {
          "internalType": "address",
          "name": "",
          "type": "address"
        }
      ],
      "stateMutability": "view",
      "type": "function"
    },
    {
      "inputs": [
        {
          "internalType": "address",
          "name": "_userAddress",
          "type": "address"
        }
      ],
      "name": "getFriends",
      "outputs": [
        {
          "internalType": "address[]",
          "name": "",
          "type": "address[]"
        }
      ],
      "stateMutability": "view",
      "type": "function"
    },
    {
      "inputs": [
        {
          "internalType": "bytes32",
          "name": "_groupId",
          "type": "bytes32"
        }
      ],
      "name": "getGroupMembers",
      "outputs": [
        {
          "internalType": "address[]",
          "name": "",
          "type": "address[]"
        }
      ],
      "stateMutability": "view",
      "type": "function"
    },
    {
      "inputs": [
        {
          "internalType": "address",
          "name": "_userAddress",
          "type": "address"
        }
      ],
      "name": "getReceivedFriendRequests",
      "outputs": [
        {
          "internalType": "bytes32[]",
          "name": "",
          "type": "bytes32[]"
        }
      ],
      "stateMutability": "view",
      "type": "function"
    },
    {
      "inputs": [
        {
          "internalType": "address",
          "name": "_userAddress",
          "type": "address"
        }
      ],
      "name": "getSentFriendRequests",
      "outputs": [
        {
          "internalType": "bytes32[]",
          "name": "",
          "type": "bytes32[]"
        }
      ],
      "stateMutability": "view",
      "type": "function"
    },
    {
      "inputs": [
        {
          "internalType": "address",
          "name": "_userAddress",
          "type": "address"
        }
      ],
      "name": "getUserGroups",
      "outputs": [
        {
          "internalType": "bytes32[]",
          "name": "",
          "type": "bytes32[]"
        }
      ],
      "stateMutability": "view",
      "type": "function"
    },
    {
      "inputs": [
        {
          "internalType": "bytes32",
          "name": "",
          "type": "bytes32"
        }
      ],
      "name": "groups",
      "outputs": [
        {
          "internalType": "string",
          "name": "name",
          "type": "string"
        },
        {
          "internalType": "address",
          "name": "owner",
          "type": "address"
        },
        {
          "internalType": "uint256",
          "name": "createdAt",
          "type": "uint256"
        },
        {
          "internalType": "bool",
          "name": "exists",
          "type": "bool"
        }
      ],
      "stateMutability": "view",
      "type": "function"
    },
    {
      "inputs": [
        {
          "internalType": "address",
          "name": "",
          "type": "address"
        },
        {
          "internalType": "address",
          "name": "",
          "type": "address"
        }
      ],
      "name": "isFriend",
      "outputs": [
        {
          "internalType": "bool",
          "name": "",
          "type": "bool"
        }
      ],
      "stateMutability": "view",
      "type": "function"
    },
    {
      "inputs": [
        {
          "internalType": "address",
          "name": "",
          "type": "address"
        },
        {
          "internalType": "uint256",
          "name": "",
          "type": "uint256"
        }
      ],
      "name": "receivedFriendRequests",
      "outputs": [
        {
          "internalType": "bytes32",
          "name": "",
          "type": "bytes32"
        }
      ],
      "stateMutability": "view",
      "type": "function"
    },
    {
      "inputs": [
        {
          "internalType": "bytes32",
          "name": "_requestId",
          "type": "bytes32"
        }
      ],
      "name": "rejectFriendRequest",
      "outputs": [],
      "stateMutability": "nonpayable",
      "type": "function"
    },
    {
      "inputs": [
        {
          "internalType": "bytes32",
          "name": "_groupId",
          "type": "bytes32"
        },
        {
          "internalType": "address",
          "name": "_userAddress",
          "type": "address"
        }
      ],
      "name": "removeUserFromGroup",
      "outputs": [],
      "stateMutability": "nonpayable",
      "type": "function"
    },
    {
      "inputs": [
        {
          "internalType": "address",
          "name": "_to",
          "type": "address"
        }
      ],
      "name": "sendFriendRequest",
      "outputs": [],
      "stateMutability": "nonpayable",
      "type": "function"
    },
    {
      "inputs": [
        {
          "internalType": "address",
          "name": "",
          "type": "address"
        },
        {
          "internalType": "uint256",
          "name": "",
          "type": "uint256"
        }
      ],
      "name": "sentFriendRequests",
      "outputs": [
        {
          "internalType": "bytes32",
          "name": "",
          "type": "bytes32"
        }
      ],
      "stateMutability": "view",
      "type": "function"
    },
    {
      "inputs": [
        {
          "internalType": "string",
          "name": "_username",
          "type": "string"
        },
        {
          "internalType": "string",
          "name": "_status",
          "type": "string"
        }
      ],
      "name": "updateUser",
      "outputs": [],
      "stateMutability": "nonpayable",
      "type": "function"
    },
    {
      "inputs": [
        {
          "internalType": "address",
          "name": "",
          "type": "address"
        },
        {
          "internalType": "uint256",
          "name": "",
          "type": "uint256"
        }
      ],
      "name": "userGroups",
      "outputs": [
        {
          "internalType": "bytes32",
          "name": "",
          "type": "bytes32"
        }
      ],
      "stateMutability": "view",
      "type": "function"
    },
    {
      "inputs": [
        {
          "internalType": "address",
          "name": "",
          "type": "address"
        }
      ],
      "name": "users",
      "outputs": [
        {
          "internalType": "string",
          "name": "username",
          "type": "string"
        },
        {
          "internalType": "string",
          "name": "publicKey",
          "type": "string"
        },
        {
          "internalType": "string",
          "name": "status",
          "type": "string"
        },
        {
          "internalType": "bool",
          "name": "exists",
          "type": "bool"
        },
        {
          "internalType": "uint256",
          "name": "createdAt",
          "type": "uint256"
        }
      ],
      "stateMutability": "view",
      "type": "function"
    }
  ],
  "bytecode": "0x608060405234801561001057600080fd5b50611ed2806100206000396000f3fe608060405234801561001057600080fd5b50600436106101375760003560e01c806387b162b5116100b8578063ca54abed1161007c578063ca54abed146102c4578063d2260641146102d7578063dc2ddcae14610302578063dd4a242514610315578063e44834eb14610328578063ef161bcb1461037f57600080fd5b806387b162b514610254578063966f7d6e146102675780639b8285811461027a578063a87430ba1461028d578063b7920cb8146102b157600080fd5b80635f383e73116100ff5780635f383e73146101e757806360a9e097146102085780636975043c1461021b5780636c052cd81461022e578063837b770a1461024157600080fd5b806326f6cf6e1461013c5780632da5d42e146101515780633da04e4a146101945780635436222c146101b45780635cbb7caa146101c7575b600080fd5b61014f61014a36600461184a565b6103a2565b005b61017f61015f36600461187f565b600260209081526000928352604080842090915290825290205460ff1681565b60405190151581526020015b60405180910390f35b6101a76101a23660046118b2565b610554565b60405161018b91906118d4565b61014f6101c236600461184a565b6105c0565b6101da6101d53660046118b2565b6106bb565b60405161018b9190611918565b6101fa6101f5366004611959565b610730565b60405190815260200161018b565b6101fa610216366004611959565b610761565b6101a76102293660046118b2565b61077d565b6101da61023c36600461184a565b6107e7565b61014f61024f3660046118b2565b610854565b61014f610262366004611a26565b610b44565b6101a76102753660046118b2565b610c78565b61014f610288366004611a8a565b610ce2565b6102a061029b3660046118b2565b6110ac565b60405161018b959493929190611afd565b6101fa6102bf366004611959565b611276565b61014f6102d2366004611a8a565b611292565b6102ea6102e5366004611959565b6114b9565b6040516001600160a01b03909116815260200161018b565b6101fa610310366004611b4b565b6114f1565b61014f610323366004611a26565b6116a4565b61036f61033636600461184a565b6003602052600090815260409020805460018201546002909201546001600160a01b039182169291821691600160a01b900460ff169084565b60405161018b9493929190611b9e565b61039261038d36600461184a565b611711565b60405161018b9493929190611be6565b600081815260036020526040902060018101546001600160a01b031633146103e55760405162461bcd60e51b81526004016103dc90611c20565b60405180910390fd5b60006001820154600160a01b900460ff16600281111561040757610407611b88565b1461044d5760405162461bcd60e51b815260206004820152601660248201527552657175657374206973206e6f742070656e64696e6760501b60448201526064016103dc565b6001818101805460ff60a01b198116600160a01b17825583546001600160a01b03908116600090815260208581526040808320805480890182559084528284200180549585166001600160a01b031996871617905585548416835280832088548154808a0183559185528385209091018054918616919096161790945586548316825260028082528483208654851684528252848320805460ff199081168917909155865485168452908252848320885485168452825291849020805490921690951790559154845491518681529083169391909216917f51c49f3d0bf7dafd90dff287d7724e8423b2d9f656b6c2d78c282d6e5cc58e0b91015b60405180910390a35050565b6001600160a01b0381166000908152600760209081526040918290208054835181840281018401909452808452606093928301828280156105b457602002820191906000526020600020905b8154815260200190600101908083116105a0575b50505050509050919050565b600081815260036020526040902060018101546001600160a01b031633146105fa5760405162461bcd60e51b81526004016103dc90611c20565b60006001820154600160a01b900460ff16600281111561061c5761061c611b88565b146106625760405162461bcd60e51b815260206004820152601660248201527552657175657374206973206e6f742070656e64696e6760501b60448201526064016103dc565b600181018054600160a11b60ff60a01b1982161790915581546040518481526001600160a01b0392831692909116907fd391b9e5ae5098840e5410b664fe4a8352f6093c39e0cfa5cee9a8a267fac3c890602001610548565b6001600160a01b0381166000908152600160209081526040918290208054835181840281018401909452808452606093928301828280156105b457602002820191906000526020600020905b81546001600160a01b031681526001909101906020018083116107075750505050509050919050565b6005602052816000526040600020818154811061074c57600080fd5b90600052602060002001600091509150505481565b6007602052816000526040600020818154811061074c57600080fd5b6001600160a01b0381166000908152600460209081526040918290208054835181840281018401909452808452606093928301828280156105b457602002820191906000526020600020908154815260200190600101908083116105a05750505050509050919050565b6000818152600660209081526040918290206002018054835181840281018401909452808452606093928301828280156105b4576020028201919060005260206000209081546001600160a01b031681526001909101906020018083116107075750505050509050919050565b3360009081526020819052604090206003015460ff166108ae5760405162461bcd60e51b815260206004820152601560248201527414d95b99195c88191bd95cc81b9bdd08195e1a5cdd605a1b60448201526064016103dc565b6001600160a01b03811660009081526020819052604090206003015460ff166109195760405162461bcd60e51b815260206004820152601860248201527f526563697069656e7420646f6573206e6f74206578697374000000000000000060448201526064016103dc565b6001600160a01b03811633036109805760405162461bcd60e51b815260206004820152602660248201527f43616e6e6f742073656e6420667269656e64207265717565737420746f20796f6044820152653ab939b2b63360d11b60648201526084016103dc565b3360009081526002602090815260408083206001600160a01b038516845290915290205460ff16156109e65760405162461bcd60e51b815260206004820152600f60248201526e416c726561647920667269656e647360881b60448201526064016103dc565b6040516bffffffffffffffffffffffff1933606090811b8216602084015283901b16603482015242604882015260009060680160408051808303601f1901815282825280516020918201206080840183523384526001600160a01b038681168386019081526000868601818152426060890152848252600390955294909420855181549083166001600160a01b031991821617825594516001820180549190931695811686178355935192965093919290916001600160a81b031990911617600160a01b836002811115610abc57610abc611b88565b0217905550606091909101516002909101556001600160a01b03821660008181526004602090815260408083208054600180820183559185528385200186905533808552600584528285208054928301815585529383902001859055518481527fc9efcbc584a1191a0574a9c1f2c98000f9c296dd91627669aa83d59c5b2289439101610548565b3360009081526020819052604090206003015460ff1615610b9d5760405162461bcd60e51b81526020600482015260136024820152725573657220616c72656164792065786973747360681b60448201526064016103dc565b6040805160a08101825283815260208082018490528251808201845260008082528385019190915260016060840152426080840152338152908190529190912081518190610beb9082611ce9565b5060208201516001820190610c009082611ce9565b5060408201516002820190610c159082611ce9565b50606082015160038201805460ff191691151591909117905560809091015160049091015560405133907f9954bce02f72fbdef0fa668ac6f42e434b5829615dac2fb22448054d2359d4f690610c6c908590611da9565b60405180910390a25050565b6001600160a01b0381166000908152600560209081526040918290208054835181840281018401909452808452606093928301828280156105b457602002820191906000526020600020908154815260200190600101908083116105a05750505050509050919050565b6000828152600660205260409020600481015460ff16610d3b5760405162461bcd60e51b815260206004820152601460248201527311dc9bdd5c08191bd95cc81b9bdd08195e1a5cdd60621b60448201526064016103dc565b60018101546001600160a01b03163314610da15760405162461bcd60e51b815260206004820152602160248201527f4f6e6c7920746865206f776e65722063616e2072656d6f7665206d656d6265726044820152607360f81b60648201526084016103dc565b60018101546001600160a01b0390811690831603610e015760405162461bcd60e51b815260206004820152601760248201527f43616e6e6f742072656d6f766520746865206f776e657200000000000000000060448201526064016103dc565b600080805b6002840154811015610e6957846001600160a01b0316846002018281548110610e3157610e31611dbc565b6000918252602090912001546001600160a01b031603610e575780915060019250610e69565b80610e6181611de8565b915050610e06565b5081610eae5760405162461bcd60e51b81526020600482015260146024820152732ab9b2b91034b9903737ba10309036b2b6b132b960611b60448201526064016103dc565b6002830154610ebf90600190611e01565b811015610f4557600283018054610ed890600190611e01565b81548110610ee857610ee8611dbc565b6000918252602090912001546002840180546001600160a01b039092169183908110610f1657610f16611dbc565b9060005260206000200160006101000a8154816001600160a01b0302191690836001600160a01b031602179055505b82600201805480610f5857610f58611e1a565b60008281526020808220830160001990810180546001600160a01b03191690559092019092556001600160a01b03861682526007905260408120909250825b8154811015610fe15786828281548110610fb357610fb3611dbc565b906000526020600020015403610fcf5780925060019350610fe1565b80610fd981611de8565b915050610f97565b50821561106e578054610ff690600190611e01565b821015611047578054819061100d90600190611e01565b8154811061101d5761101d611dbc565b906000526020600020015481838154811061103a5761103a611dbc565b6000918252602090912001555b8080548061105757611057611e1a565b600190038181906000526020600020016000905590555b6040516001600160a01b0386169087907f9cfb25b230d7eca68e895be22d5f4e9140a94812c96c8b0b885285a0063a125090600090a3505050505050565b6000602081905290815260409020805481906110c790611c61565b80601f01602080910402602001604051908101604052809291908181526020018280546110f390611c61565b80156111405780601f1061111557610100808354040283529160200191611140565b820191906000526020600020905b81548152906001019060200180831161112357829003601f168201915b50505050509080600101805461115590611c61565b80601f016020809104026020016040519081016040528092919081815260200182805461118190611c61565b80156111ce5780601f106111a3576101008083540402835291602001916111ce565b820191906000526020600020905b8154815290600101906020018083116111b157829003601f168201915b5050505050908060020180546111e390611c61565b80601f016020809104026020016040519081016040528092919081815260200182805461120f90611c61565b801561125c5780601f106112315761010080835404028352916020019161125c565b820191906000526020600020905b81548152906001019060200180831161123f57829003601f168201915b505050506003830154600490930154919260ff1691905085565b6004602052816000526040600020818154811061074c57600080fd5b6000828152600660205260409020600481015460ff166112eb5760405162461bcd60e51b815260206004820152601460248201527311dc9bdd5c08191bd95cc81b9bdd08195e1a5cdd60621b60448201526064016103dc565b60018101546001600160a01b031633146113475760405162461bcd60e51b815260206004820152601e60248201527f4f6e6c7920746865206f776e65722063616e20616464206d656d62657273000060448201526064016103dc565b6001600160a01b03821660009081526020819052604090206003015460ff166113825760405162461bcd60e51b81526004016103dc90611e30565b6000805b60028301548110156113e657836001600160a01b03168360020182815481106113b1576113b1611dbc565b6000918252602090912001546001600160a01b0316036113d457600191506113e6565b806113de81611de8565b915050611386565b5080156114355760405162461bcd60e51b815260206004820152601860248201527f5573657220697320616c72656164792061206d656d626572000000000000000060448201526064016103dc565b600282018054600180820183556000928352602080842090920180546001600160a01b0319166001600160a01b0388169081179091558084526007835260408085208054938401815585529284209091018790559051909186917f4cae91d17b87680b938cf3e1268509328672bb7ac4e79e427b48035033d503229190a350505050565b600160205281600052604060002081815481106114d557600080fd5b6000918252602090912001546001600160a01b03169150829050565b3360009081526020819052604081206003015460ff166115235760405162461bcd60e51b81526004016103dc90611e30565b600033834260405160200161153a93929190611e5d565b60408051601f1981840301815282825280516020918201206001808552848401909352935060009291908083019080368337019050509050338160008151811061158657611586611dbc565b6001600160a01b039092166020928302919091018201526040805160a081018252868152338184015280820184905242606082015260016080820152600085815260069093529120815181906115dc9082611ce9565b506020828101516001830180546001600160a01b0319166001600160a01b039092169190911790556040830151805161161b92600285019201906117d0565b50606082015160038201556080909101516004909101805460ff1916911515919091179055336000818152600760209081526040808320805460018101825590845291909220018490555183907f1bb95e55ca2fcd8cf9b38419c7a8a270ec4ebf11537a0da39f74ad660e913a4590611695908890611da9565b60405180910390a35092915050565b3360009081526020819052604090206003015460ff166116d65760405162461bcd60e51b81526004016103dc90611e30565b3360009081526020819052604090206116ef8382611ce9565b5033600090815260208190526040902060020161170c8282611ce9565b505050565b60066020526000908152604090208054819061172c90611c61565b80601f016020809104026020016040519081016040528092919081815260200182805461175890611c61565b80156117a55780601f1061177a576101008083540402835291602001916117a5565b820191906000526020600020905b81548152906001019060200180831161178857829003601f168201915b505050506001830154600384015460049094015492936001600160a01b039091169290915060ff1684565b828054828255906000526020600020908101928215611825579160200282015b8281111561182557825182546001600160a01b0319166001600160a01b039091161782556020909201916001909101906117f0565b50611831929150611835565b5090565b5b808211156118315760008155600101611836565b60006020828403121561185c57600080fd5b5035919050565b80356001600160a01b038116811461187a57600080fd5b919050565b6000806040838503121561189257600080fd5b61189b83611863565b91506118a960208401611863565b90509250929050565b6000602082840312156118c457600080fd5b6118cd82611863565b9392505050565b6020808252825182820181905260009190848201906040850190845b8181101561190c578351835292840192918401916001016118f0565b50909695505050505050565b6020808252825182820181905260009190848201906040850190845b8181101561190c5783516001600160a01b031683529284019291840191600101611934565b6000806040838503121561196c57600080fd5b61197583611863565b946020939093013593505050565b634e487b7160e01b600052604160045260246000fd5b600082601f8301126119aa57600080fd5b813567ffffffffffffffff808211156119c5576119c5611983565b604051601f8301601f19908116603f011681019082821181831017156119ed576119ed611983565b81604052838152866020858801011115611a0657600080fd5b836020870160208301376000602085830101528094505050505092915050565b60008060408385031215611a3957600080fd5b823567ffffffffffffffff80821115611a5157600080fd5b611a5d86838701611999565b93506020850135915080821115611a7357600080fd5b50611a8085828601611999565b9150509250929050565b60008060408385031215611a9d57600080fd5b823591506118a960208401611863565b60005b83811015611ac8578181015183820152602001611ab0565b50506000910152565b60008151808452611ae9816020860160208601611aad565b601f01601f19169290920160200192915050565b60a081526000611b1060a0830188611ad1565b8281036020840152611b228188611ad1565b90508281036040840152611b368187611ad1565b94151560608401525050608001529392505050565b600060208284031215611b5d57600080fd5b813567ffffffffffffffff811115611b7457600080fd5b611b8084828501611999565b949350505050565b634e487b7160e01b600052602160045260246000fd5b6001600160a01b038581168252841660208201526080810160038410611bd457634e487b7160e01b600052602160045260246000fd5b60408201939093526060015292915050565b608081526000611bf96080830187611ad1565b6001600160a01b039590951660208301525060408101929092521515606090910152919050565b60208082526021908201527f4e6f742074686520726563697069656e74206f662074686973207265717565736040820152601d60fa1b606082015260800190565b600181811c90821680611c7557607f821691505b602082108103611c9557634e487b7160e01b600052602260045260246000fd5b50919050565b601f82111561170c57600081815260208120601f850160051c81016020861015611cc25750805b601f850160051c820191505b81811015611ce157828155600101611cce565b505050505050565b815167ffffffffffffffff811115611d0357611d03611983565b611d1781611d118454611c61565b84611c9b565b602080601f831160018114611d4c5760008415611d345750858301515b600019600386901b1c1916600185901b178555611ce1565b600085815260208120601f198616915b82811015611d7b57888601518255948401946001909101908401611d5c565b5085821015611d995787850151600019600388901b60f8161c191681555b5050505050600190811b01905550565b6020815260006118cd6020830184611ad1565b634e487b7160e01b600052603260045260246000fd5b634e487b7160e01b600052601160045260246000fd5b600060018201611dfa57611dfa611dd2565b5060010190565b81810381811115611e1457611e14611dd2565b92915050565b634e487b7160e01b600052603160045260246000fd5b602080825260139082015272155cd95c88191bd95cc81b9bdd08195e1a5cdd606a1b604082015260600190565b6bffffffffffffffffffffffff198460601b16815260008351611e87816014850160208801611aad565b6014920191820192909252603401939250505056fea2646970667358221220bbe904d2206c5f00ca04e8aeed00f04f44843dba34d6dfa5b042b3a8b83f641364736f6c63430008130033",
  "linkReferences": {},
  "deployedLinkReferences": {}
}